:020000040800F2
:1000000030040020D5100008F50F0008FD0F00088F
:10001000FF0F000801100008031000080000000096
:1000200000000000000000000000000005100008B3
:100030000710000800000000091000080B1000085D
:10004000F1100008F5100008F9100008FD10000874
:100050000111000805110008091100080D11000820
:100060001111000815110008191100081D110008D0
:100070002111000825110008291100082D11000880
:100080003111000835110008391100083D11000830
:100090004111000845110008491100084D110008E0
:1000A0005111000855110008591100085D11000890
:1000B0006111000865110008691100086D11000840
:1000C0007111000875110008791100087D110008F0
:1000D0008111000885110008891100088D110008A0
:1000E0009111000895110008991100089D11000850
:1000F000A1110008A5110008A9110008AD11000800
:10010000B1110008B5110008B9110008BD110008AF
:10011000C1110008C5110008C9110008CD1100085F
:10012000D1110008D5110008D9110008DD1100080F
:100130002DE9FC410400002C01D10120DFE12078F1
:10014000C0076BD5DFF8A805016811F00C01042980
:1001500007D0016811F00C0108290CD10068C00318
:1001600009D5DFF888050068800357D56068002846
:1001700054D10120C3E16068B0F5803F06D1DFF8BB
:100180006C05016851F48031016026E06068002848
:100190000AD1DFF85805016831F480310160016847
:1001A00031F48021016018E06068B0F5A02F0AD119
:1001B000DFF83805016851F480210160016851F4CD
:1001C0008031016009E0DFF82405016831F48031F5
:1001D0000160016831F480210160606800280ED060
:1001E00000F0AEFA0500DFF804050068800315D4BE
:1001F00000F0A6FA401B6528F5D303207FE100F04C
:100200009FFA0500DFF8E4040068800306D500F0DB
:1002100097FA401B6528F5D3032070E1207880070A
:100220001ED5DFF8CC04016811F00C0F07D001686F
:1002300011F00C0108292CD10068C00329D4DFF883
:10024000AC040168890704D52169012901D0012086
:1002500055E1016831F0F801626951EAC2010160BB
:100260002078000749D5A069002871D00120DFF867
:100270009814086000F064FA0500DFF88404006850
:10028000800737D400F05CFA401B0328F5D3032025
:1002900035E1206900281AD00120DFF870140860C9
:1002A00000F04EFA0500DFF844040168890706D41F
:1002B00000F046FA401B0328F5D303201FE1016834
:1002C00031F0F801626951EAC2010160C8E700201B
:1002D000DFF83814086000F033FA0500DFF80C048A
:1002E00000688007BCD500F02BFA401B0328F5D32B
:1002F000032004E1012000F0E7F92078400740F1F5
:1003000096800026DFF808542868C00009D42868C1
:1003100050F080502860286810F0805000900098BD
:100320000126DFF8F0733868C00524D4386850F42B
:100330008070386000F004FA80463868C0051AD42E
:1003400000F0FEF9B0EB08006528F6D30320D6E0F4
:100350000020DFF8B413086000F0F2F90500DFF8C0
:10036000A00300688007C8D500F0EAF9401B032805
:10037000F5D30320C3E0E068012806D1DFF8980335
:10038000016851F00101016025E0E06800280AD110
:10039000DFF884030168490849000160016831F011
:1003A0000401016017E0E06805280AD1DFF868035E
:1003B000016851F004010160016851F00101016020
:1003C00009E0DFF854030168490849000160016849
:1003D00031F004010160E068002810D000F0B0F9AD
:1003E0000700DFF834030068800719D400F0A8F98B
:1003F000C01B41F289318842F3D303207FE000F033
:100400009FF90700DFF810030068800708D500F0A7
:1004100097F9C01B41F289318842F3D303206EE083
:10042000F6B2012E03D1286830F080502860E069D0
:10043000002863D0DFF8B862306810F00C0008289C
:100440004AD0E069022834D1DFF8D0720020386049
:1004500000F076F98046DFF894522868800107D5CD
:1004600000F06EF9B0EB08000328F4D3032046E057
:10047000206AB0F5803F05D1316831F40031A068C1
:1004800001433160316831F47411206A0143606ABC
:10049000014331600120386000F052F904002868FF
:1004A00080012BD400F04CF9001B0328F7D3032064
:1004B00025E00020DFF86412086000F041F9040034
:1004C000DFF828020068800118D500F039F9001B18
:1004D0000328F5D3032012E0E069012801D10120AF
:1004E0000DE0306810F48031226A914204D110F49A
:1004F0007010616A884201D0012000E00020BDE850
:10050000F6812DE9F04104000E00002C01D10120FC
:1005100098E0DFF80C52286810F00700B0420BD2C8
:100520002868C008C00030432860286810F0070021
:10053000B04201D0012085E02078800716D52078D0
:10054000400704D56A48016851F4E06101602078F1
:10055000000704D56648016851F4605101606449A0
:100560000A6832F0F002A06802430A602078C007EF
:1005700032D56068012805D15C480068800310D43A
:1005800001205FE06068022805D1584800688001BA
:1005900007D4012056E055480068800701D40120A7
:1005A00050E0534F39688908890060680143396019
:1005B00000F0C6F88046386810F00C006168B0EBB7
:1005C000810F09D000F0BCF8B0EB080041F289318E
:1005D0008842F0D3032035E0286810F007008642F7
:1005E0000BD22868C008C00030432860286810F08B
:1005F0000700B04201D0012024E02078400706D552
:100600003B490A6832F4E062E06802430A602078FD
:10061000000707D53648016831F46051226951EA74
:10062000C201016000F014F83E49314A1268C2F379
:100630000312895CC840304908603048006800F007
:1006400085F80020BDE8F081012037490860704737
:1006500000B585B001A83549102200F09DF8344856
:100660000088ADF8000000200020002000200020BD
:100670001F4A116811F00C00042802D0082802D08B
:1006800014E01C4813E001A8C1F38343C05CC90314
:1006900009D569461268C2F340428A5C154948434D
:1006A000B0FBF2F001E02349484300E0114805B0F7
:1006B00000BD80B513480068000604D500F03EF880
:1006C00080201D49087001BD81B00B490968C90827
:1006D0004FF47A72B1FBF2F14843009000BF0098EA
:1006E000411E00910028F9D101B07047001002406E
:1006F0000410024000127A00240000202000002094
:10070000241002400810024080044242000042428D
:100710001C10024000700040201002406000424265
:1007200000200240C41000084C004242B4100008EF
:100730003E07000800093D000A1002407047010210
:1007400001480068704700BF2800002010B5040071
:100750004FF47A700D490978B0FBF1F00C49096843
:10076000B1FBF0F000F0CAF8002801D001200CE045
:10077000102C09D2002221005FF0FF3000F0ADF80C
:1007800004480460002000E0012010BD2C0000207F
:100790002400002020000020103A07D330B4B1E834
:1007A0003810103AA0E83810F9D230BC530724BFF3
:1007B000B1E80810A0E8081044BF51F8043B40F825
:1007C000043BD20724BF31F8022B20F8022B44BF90
:1007D0000B7803707047121F17D35B0009D151F8D3
:1007E000043B20F8023B1B0C121F20F8023BF6D200
:1007F0000BE051F8043B00F8013B1B0A20F8023BD8
:100800001B0C121F00F8013BF3D238BF121D521E01
:1008100024BF11F8013B00F8013BF8D870470000F5
:1008200010F00700374B1A684FF6FF010A403649AF
:1008300051EA00210A431A60704732480068C0F349
:1008400002207047020052B2002A04D409012F4A44
:1008500040B2115407E009012D4A40B210F00F00D8
:10086000104400F8041C704710B410F00700D0F1D9
:100870000703052B01D3042301E0D0F10703041D76
:10088000072C01D2002000E0C01E012414FA03F35B
:100890005B1E1940814014FA00F0401E10400843CE
:1008A00010BC704780B5411EB1F1807F01D301209B
:1008B0000EE0401E174908600F215FF0FF30FFF780
:1008C000C1FF002014490860072014490860002077
:1008D00002BD80B5FFF7A4FF01BD70B504000D0097
:1008E00016000020FFF7A9FF32002900FFF7BCFF28
:1008F0000100200040B2FFF7A5FF70BD80B5FFF7F3
:10090000D1FF02BD0CED00E00000FA0500E400E0BC
:1009100018ED00E014E000E018E000E010E000E076
:10092000F8B502000023002514E0DFF8D8010668BE
:1009300036EA040404600CE0DFF8CC010668A64344
:10094000066048688002F0D5DFF8B80106683443D5
:1009500004605B1C0868D840002800F0C7800126AE
:100960009E400C683440B442F3D1486800282CD033
:1009700001281FD0022822D0032834D011281BD0F0
:1009800012281FD0DFF88471B8421ED0DFF88071C2
:10099000B8421AD0DFF87C71B84216D0DFF878710F
:1009A000B84212D0DFF87471B8420ED05C4FB84232
:1009B0000BD01AE0CD6818E0CD682D1D15E0CD688C
:1009C000083512E0CD680C350FE08868002801D1A9
:1009D000042507E08868012802D10825166101E096
:1009E0000825566101E00025FFE7B4F5807F01D2BC
:1009F000170000E0171DB4F5807F02D25FEA830C78
:100A000003E0B3F1080C5FEA8C0C0F26D7F800E086
:100A100016FA0CF03EEA000E15FA0CFC5CEA0E0C1D
:100A2000C7F800C04868C00093D53E48076857F033
:100A300001070760006810F00100009000983A4F2D
:100A40001800800857F820C013F00300C0B28000DF
:100A500086403CEA060C3548824201D1002619E066
:100A60003348824201D1012614E03248824201D14A
:100A700002260FE03048824201D103260AE02F48C7
:100A8000824201D1042605E02D48824201D105268B
:100A900000E0062613F00300C0B28000864056EA4C
:100AA0000C0C1800800847F820C04868C00304D523
:100AB000244806682643066003E022480668A643E9
:100AC00006604868800304D51F4806682643066010
:100AD00003E01D480668A64306604868C0027FF52B
:100AE0002BAF09480668264306602AE7F1BDD2B25B
:100AF000002A02D089B2016102E089B209040161D1
:100B0000704700000C04014008040140000011106F
:100B1000000012100000211000002210000031100F
:100B20000000321018100240080001400008014087
:100B3000000C014000100140001401400018014069
:100B4000001C014000040140040401400100481E53
:100B50000029FBD1704770B50400002524E0002275
:100B60002021DFF83801FFF7C2FF0AE02000C0B201
:100B7000A8400006F3D501222021DFF82001FFF76D
:100B8000B6FFDFF81861012208213000FFF7AFFF40
:100B90006420FFF7DBFF002208213000FFF7A7FFEA
:100BA0006420FFF7D3FF6D1C2800C0B20828DDDBEE
:100BB00070BD10B50400012000F05FF8F820FFF7C9
:100BC000CAFF14F0F000FFF7C6FF24012000C0B2F6
:100BD000FFF7C1FF012000F050F810BD38B5040048
:100BE0002F4D012204212800FFF781FFFA20FFF793
:100BF000B2FF14F0F000FFF7AEFF24012000C0B2F6
:100C0000FFF7A9FF002204212800FFF770FF31BD84
:100C100010B51400234AC0B202EBC000C9B2405C58
:100C2000FFF7C7FF03E02078FFF7D8FF641C2078A8
:100C30000028F8D110BD80B500F00AF83020FFF789
:100C4000B8FF0C20FFF7B5FF0120FFF7B2FF01BD91
:100C500010B5124C00224FF400712000FFF747FF3F
:100C6000052000F021F801224FF400712000FFF769
:100C70003EFF052000F018F810BD80B5C0B2002876
:100C800005D1002204210648FFF731FF04E00122CC
:100C900004210348FFF72BFF01BD0000000C0140B9
:100CA000001401400000002038B50400FFF748FDA3
:100CB000050014F1010F02D0044800780419FFF771
:100CC0003FFD401BA042FAD331BD00BF2C000020E5
:100CD00010B500F063F800F029F800F071F8FFF7A4
:100CE000AAFF0E4A00210020FFF792FF40F6B83419
:100CF0002000FFF7D9FF0A4A00210120FFF788FFF3
:100D0000084A00210220FFF783FF074A0021032041
:100D1000FFF77EFF2000FFF7C7FFE2E7741000082F
:100D20008410000894100008A410000800B58FB0CB
:100D300005A8282100F0A4F86846142100F0A0F8C6
:100D4000012005905FF48030069000210791012179
:100D5000099102210C910D905FF4E0100E9005A80E
:100D6000FFF7E6F9002801D000F017F80F200090F7
:100D700002200190002002904FF480600390002038
:100D8000049002216846FFF7BCFB002801D000F068
:100D900004F8FFF759FC0FB000BD704780B5074855
:100DA000016851F0100101600320FFF792FD00205F
:100DB000FFF7CCFC00F068F8002002BD00200240E4
:100DC00030B585B06846102100F05AF8294801680E
:100DD00051F020010160016811F020010491049993
:100DE000016851F004010160016811F004010491EF
:100DF0000499016851F008010160006810F00800D2
:100E0000049004981C4C002204212000FFF76FFE80
:100E10001A4D00224FF44A712800FFF768FE0420A3
:100E2000009001200190002002900220039069466A
:100E30002000FFF775FD4FF44A70009001200190EB
:100E4000002002900220039069462800FFF768FD09
:100E5000002204212000FFF74AFE00222021280062
:100E6000FFF745FE002208212800FFF740FE05B0ED
:100E700030BD00BF1810024000140140000C0140BA
:100E8000002200F025B8000081B00E48016851F042
:100E900001010160006810F00100009000980A480C
:100EA000016851F080510160006810F0805000909E
:100EB00000980649086830F0E06050F00070086063
:100EC00001B07047181002401C100240040001409D
:100ED00000B500BF130096469446103928BFA0E81D
:100EE0000C50FAD85FEA417C28BF0CC048BF40F8DC
:100EF000042BC90728BF20F8022B48BF00F8012B9C
:100F000000BD00000F49086850F0010008600E4A5B
:100F100013680E48034013600B680D4803400B60D4
:100F2000086830F480200860106830F4FE0010601B
:100F30005FF41F00074908605FF000600649086021
:100F40007047000000100240041002400000FFF84B
:100F5000FFFFF6FE0810024008ED00E0808182836A
:100F600084858687909192939495969788898A8BA9
:100F70008C8D8E8F98999A9B9C9D9E9F100000004F
:100F80000024F400000000000100000030B450F81C
:100F9000041B79B10268436802440830DC0744BF8F
:100FA000A9F10104E31852F8045B43F8045B091F3C
:100FB000F9D1ECE730BC704710B5074979441831D6
:100FC000064C7C44163404E00A68081D1144884726
:100FD0000146A142F8D110BD080000001800000031
:100FE000ADFFFFFF3000000074FFFFFF0000002096
:100FF0000000000080B5FFF75CFB01BDFEE7FEE7E7
:10100000FEE7FEE770477047704780B500F002F8D2
:1010100001BD000003490A680348007882180A608D
:10102000704700BF280000202C00002000F00DF8C1
:10103000002801D0FFF7C0FFAFF300800020AFF31E
:101040000080FFF745FE00F002F80120704700F035
:1010500001B800000746384600F002F8FBE7000040
:1010600080B5AFF30080024A11001820ABBEFBE749
:1010700026000200C7E5CAB1C3F7D4C2BABACAB1E2
:10108000B9D80000CDF2C0EFB3A4D5F7C8CBCEB429
:10109000BBB90000B5ABCAB9C1FAB3C7B7C9BDABDC
:1010A000D4DA0000B2BBBDCCBAFAC2EDB6C8D2F5F4
:1010B000C9BD000002030405060708090A0B0C0D50
:1010C0000E0F1010000000000000000001020304D9
:1010D000060708090148804701480047050F000836
:1010E000E5100008AFF30080AFF30080FFF79EFF2C
:1010F000FFF7FEBFFFF7FEBFFFF7FEBFFFF7FEBF24
:10110000FFF7FEBFFFF7FEBFFFF7FEBFFFF7FEBF13
:10111000FFF7FEBFFFF7FEBFFFF7FEBFFFF7FEBF03
:10112000FFF7FEBFFFF7FEBFFFF7FEBFFFF7FEBFF3
:10113000FFF7FEBFFFF7FEBFFFF7FEBFFFF7FEBFE3
:10114000FFF7FEBFFFF7FEBFFFF7FEBFFFF7FEBFD3
:10115000FFF7FEBFFFF7FEBFFFF7FEBFFFF7FEBFC3
:10116000FFF7FEBFFFF7FEBFFFF7FEBFFFF7FEBFB3
:10117000FFF7FEBFFFF7FEBFFFF7FEBFFFF7FEBFA3
:10118000FFF7FEBFFFF7FEBFFFF7FEBFFFF7FEBF93
:10119000FFF7FEBFFFF7FEBFFFF7FEBFFFF7FEBF83
:1011A000FFF7FEBFFFF7FEBFFFF7FEBFFFF7FEBF73
:1011B000FFF7FEBFFFF7FEBFFFF7FEBFFFF7FEBF63
:1011C000FFF7FEBFFFF7FEBFFFF7FEBFFFF7FEBF53
:1011D000FFF7FEBFFFF7FEBFFFF7FEBFFFF7FEBF43
:04000005080010E5FA
:00000001FF
